:1000000080312E28053008007E1480310B1F09280E
:100010000A282C282100111E0E280F281B2820003A
:10002000111E132814281B28210054088A00530885
:100030000A0080312C282100911E1F2820282C28FE
:100040002000911E242825282C28210052088A00EF
:1000500051080A0080312C287E1009008031302898
:10006000FC01A0308400003085003E308C312E240D
:100070008031203084000130850038308C312E24CE
:1000800080317E1020008231B62A2000BE00310867
:10009000C5003208C6003308C7003408C800350858
:1000A000C9003608CA003708CB003808CC004530F4
:1000B000860000308700473FB900B91B60286228DE
:1000C0000130632800302000BA00BB013A08C300A9
:1000D0003B08C4004308440403196F2870288E2885
:1000E000C509C609C709C809C909CA09CB09CC0984
:1000F000C50A031D8E28C60A031D8E28C70A031DC4
:100100008E28C80A031D8E28C90A031D8E28CA0A14
:10011000031D8E28CB0A031D8E28CC0A2100C21B8A
:10012000922893289728FD30C305FF30C405420864
:10013000803A2000B90080303902031DA228013026
:10014000210041020318A528A628AC280130200070
:10015000BF000030C000B428210042082000C000C9
:10016000210041082000BF00210040082000C200FB
:1001700021003F082000C10043084404031DC1289A
:10018000C228C7282100431DC628C728CC28FF3015
:100190002000C107FF30C23D1F302000CD000030DD
:1001A000CE002200D7013D29FF302000CD07FF30CF
:1001B000CE3D0A30A000A101A201A301A401A50126
:1001C000A601A7014508A8004608A9004708AA00FB
:1001D0004808AB004908AC004A08AD004B08AE0027
:1001E0004C08AF008331AA23803120002108F5009C
:1001F0002008F4008D31E82580317408303E20005D
:10020000B9004D08383E860001308700390881006A
:10021000FF30BF07FF30C03DFF30C107FF30C23D98
:100220000A30A000A101A201A301A401A501A60119
:10023000A7014508A8004608A9004708AA004808E1
:10024000AB004908AC004A08AD004B08AE004C08B2
:10025000AF008131B521803120002008C500210880
:10026000C6002208C7002308C8002408C9002508C2
:10027000CA002608CB002708CC0020004E08803A90
:10028000B90080303902031D472901304D02031C9B
:100290004A294B2978292000450846044704480488
:1002A00049044A044B044C04031D57295829D428F7
:1002B0004008803AB90080303902031D61290130BD
:1002C0003F02031864296529D42820004208803A97
:1002D000B90080303902031D6F2901304102031C2F
:1002E0007229732978292100C31877297829D428FD
:1002F000200043084404031D7E297F29842921000E
:10030000431D83298429A129FF302000CD07FF3018
:10031000CE3D43084404031D8E298F2994292B3098
:10032000BC000030BD0098292D30BC000030BD005D
:100330003C08B9004D08383E860001308700390876
:10034000810020004D08383EB9003908A800420855
:10035000AA004108A9003E0885316F2580312000A0
:100360002908B2002808B1000800F30120308600F7
:1003700000308700473FF100F11FBF29C029E12964
:100380002000A009A109A209A309A409A509A60999
:10039000A709A00A031DDF29A10A031DDF29A20A5C
:1003A000031DDF29A30A031DDF29A40A031DDF297A
:1003B000A50A031DDF29A60A031DDF29A70AF301E9
:1003C000F30A2830860000308700473FF100F11F14
:1003D000EA29EB290E2A2000A809A909AA09AB09D4
:1003E000AC09AD09AE09AF09A80A031D0A2AA90A7A
:1003F000031D0A2AAA0A031D0A2AAB0A031D0A2A98
:10040000AC0A031D0A2AAD0A031D0A2AAE0A031DFF
:100410000A2AAF0A0130F1007108F3067430860031
:10042000003087000830F10000301E00F10B152A63
:100430002000200821042204230424042504260487
:1004400027040319242A252A812AF201F20A342AD0
:10045000A035A10DA20DA30DA40DA50DA60DA70DF0
:100460000130F1007108F207A71F372A382A282A1D
:10047000F435F50DF60DF70DF80DF90DFA0DFB0D30
:1004800027082F02031D5E2A26082E02031D5E2A5E
:1004900025082D02031D5E2A24082C02031D5E2A56
:1004A00023082B02031D5E2A22082A02031D5E2A4E
:1004B00021082902031D5E2A20082802031C612A44
:1004C000622A732A2008A8022108A93B2208AA3B15
:1004D0002308AB3B2408AC3B2508AD3B2608AE3BCC
:1004E0002708AF3B7414A736A60CA50CA40CA30CCC
:1004F000A20CA10CA00C0130F202031D802A812A5B
:10050000382A73080319852A862AA42AF409F509CA
:10051000F609F709F809F909FA09FB09F40A031DB4
:10052000A42AF50A031DA42AF60A031DA42AF70A21
:10053000031DA42AF80A031DA42AF90A031DA42AEC
:10054000FA0A031DA42AFB0A74082000A0007508FB
:10055000A1007608A2007708A3007808A400790813
:10056000A5007A08A6007B08A70008008D31CF25DA
:10057000823121008C118B170B170130F1000030F4
:10058000F2008D31702582312A302100C9000030FF
:10059000CA000E30C7000030C8000130C50000306E
:1005A000C6000130E6000030E7000130EA0000300C
:1005B000EB002C30E2000130E3002000A80168309D
:1005C00086311F2682318E31A126823176082100A4
:1005D000E5007508E4002000A801A80A683086310B
:1005E0001F2682318E31A126823176082100ED004E
:1005F0007508EC000230DF005F082000A8006830BA
:1006000086311F2682318E317C2682317608210088
:10061000E9007508E800FF302000E7008730E800B7
:10062000210069082000EA00210068082000E90094
:1006300021006D082000EC0021006C082000EB0078
:10064000210065082000EE00210064082000ED0074
:100650008D314725823121004A086D06031D322B5A
:1006600049086C06031D352B362B472B48086906B5
:10067000031D3C2B47086806031D3F2B402B472BCF
:100680005708031D442B452B472BD701D70A570882
:1006900003194B2B4C2B842B45084907DF004608D8
:1006A0004A3DE0006D08803AE1006008803A61024E
:1006B000031D5C2B5F086C0203185F2B602B842BDF
:1006C00021006B08F2006A08F1008D31702582313B
:1006D00021006B086302031D6F2B6A086202031C72
:1006E000722B732B842B6608EA076708EB3D0B30EF
:1006F0002100E0002630DF005D30890B7D2BDF0B11
:100700007D2BE00B7D2B0032210045084907DF00DF
:1007100046084A3DE0006D08803AE1006008803AF2
:100720006102031D952B5F086C02031C982B992B0B
:10073000DD2A2100570803199E2B9F2BDD2AD701A4
:100740000130F1000030F2008D3170258231DD2A58
:1007500080312E28F3012830860000308700473F83
:10076000F100F11FB42BB52BD62B2000A809A90945
:10077000AA09AB09AC09AD09AE09AF09A80A031D66
:10078000D42BA90A031DD42BAA0A031DD42BAB0A10
:10079000031DD42BAC0A031DD42BAD0A031DD42B8F
:1007A000AE0A031DD42BAF0AF301F30A20308600F2
:1007B00000308700473FF100F11FDF2BE02BFF2BBC
:1007C0002000A009A109A209A309A409A509A60955
:1007D000A709A00A031DFF2BA10A031DFF2BA20AD4
:1007E000031DFF2BA30A031DFF2BA40A031DFF2BD0
:1007F000A50A031DFF2BA60A031DFF2BA70A200035
:1008000020082104220423042404250426042704A8
:1008100003190B2C0C2C5F2CF201F20A1B2CA035B7
:10082000A10DA20DA30DA40DA50DA60DA70D0130C0
:10083000F1007108F207A71F1E2C1F2C0F2C270890
:100840002F02031D3D2C26082E02031D3D2C2508DA
:100850002D02031D3D2C24082C02031D3D2C2308D2
:100860002B02031D3D2C22082A02031D3D2C2108CA
:100870002902031D3D2C20082802031C402C412C7A
:10088000512C2008A8022108A93B2208AA3B2308D2
:10089000AB3B2408AC3B2508AD3B2608AE3B270804
:1008A000AF3BA736A60CA50CA40CA30CA20CA10C64
:1008B000A00C0130F202031D5E2C5F2C1F2C73086C
:1008C0000319632C642C822CA809A909AA09AB0975
:1008D000AC09AD09AE09AF09A80A031D822CA90A0B
:1008E000031D822CAA0A031D822CAB0A031D822C35
:1008F000AC0A031D822CAD0A031D822CAE0A031D17
:10090000822CAF0A20002808A0002908A1002A088C
:10091000A2002B08A3002C08A4002D08A5002E0877
:10092000A6002F08A70008002000DE004F08860060
:100930008701403FD100413FD20051088400520856
:1009400085001200253A031DA62CA72C4B2D4F081D
:10095000860087010130810741310318810A210097
:10096000BF01C001C301C401FF30C100FF30C2009C
:1009700020004F0886008701403FD100413FD20050
:1009800051088400520885001200643A0319C92CEA
:10099000CA2CDB2C4F0886008701403FD100413F25
:1009A000D20051088400520885001200693A031DE4
:1009B000DA2CDB2C162D4F088600870101308107C9
:1009C00041310318810A500886008701010884001C
:1009D000850102308107003FD100013FD20051085C
:1009E000D6005208D700890D893B8909D800D90063
:1009F000DA00DB00DC00DD005608B1005708B20069
:100A00005808B3005908B4005A08B5005B08B6008E
:100A10005C08B7005D08B8005E088031452084316D
:100A200020003208D0003108CF006E2D4F0886001C
:100A30008701403FD100413FD20051088400520855
:100A400085001200253A031D262D272D402D4F0825
:100A5000860087010130810741310318810A253062
:100A6000F4000030F5005E08D1005108F600863130
:100A7000BB26843101302000CF000030D0006E2D25
:100A80004F08860087010130810741310318810A30
:100A9000CF01D0016E2D4F0886008701403FD10065
:100AA000413FD20051088400520885000008D3005D
:100AB000D4015308F4005408F5005E08D500550829
:100AC000F6008631BB26843120004F08860087015E
:100AD0000130810741310318810A3A2D08002000B6
:100AE000B0002100431C752D762D7F2D200030088D
:100AF000AB002B08A00028088F3116278531200075
:100B0000AA1B832D842D892D2A08AF002908AE0049
:100B10008B2DAE01AF01AC01AD019F2D2030F40053
:100B20000030F50020003008AB002B08F6008631BD
:100B3000BB26853101302000AC070030AD3D2D08CB
:100B4000803AAB002F08803A2B02031DA92D2E08F6
:100B50002C02031CAC2DAD2D8E2D21004318B12D80
:100B6000B22DBB2D20003008AB002B08A0002808B8
:100B70008F3116278531200028088E3102268531D5
:100B800020002E087107A8002F08723DA900080058
:100B90008C311C248531003A0319CF2DD02D022E23
:100BA000DD2D8B31D12385311E2E8B31D62385311E
:100BB0001E2E8B31E02385311E2E21002F082000B0
:100BC000A0002008FA000630A03E86008701413FC1
:100BD0008A00403F0A0085312000A100A2012208BE
:100BE000003A0319F42DD92D2108013A0319D92D02
:100BF000033A0319D12D013A0319D52D073A0319E8
:100C0000D92DD92D21003C101730A03E8600870138
:100C1000403F84008501810A00088B31C72385315C
:100C200001302100B8020030B93B38083904031DF7
:100C30001A2E1B2E1D2E06301E2E033008002000FB
:100C4000AA002A30A9002908AE000230AC0000300A
:100C5000AD0020002A08873175278631003A031934
:100C6000322E332E292EE130F6000C30F7002E30D4
:100C70002000A9002908F8008C317B24863101303E
:100C8000F1000030F20028308C31AF248631003082
:100C9000F600F700F8018C31A22486318B31F9235C
:100CA00086318731E32786312000A9002908AB006F
:100CB0002B0303195C2E5D2E512E2B08031D612E74
:100CC000622E632E6D2EFF30AC07FF30AD3D2C0839
:100CD0002D04031D6C2E6D2E292E2E0808008B313D
:100CE000AD2386312000A00021003708860087014F
:100CF0002000200881000130A00020082100B70753
:100D00000130B8020030B93B380839040319892E84
:100D10008A2E8F2E8B31C32386310530BA2EBC1517
:100D2000992E8B31EF238631BA2E8B31EA2386310F
:100D3000BA2E2C082000A0002008FA00210021086B
:100D40008A0020080A0086312000A100A2012208A2
:100D5000003A0319AC2E952E2108013A0319952E5D
:100D6000033A0319912E013A0319912E073A0319F8
:100D7000952E952E080076080319BF2EC02EC52E7D
:100D80007608031DC42EC52ECA2E74088C31282463
:100D90008631F92E7608033E86008701160001048D
:100DA0000319D32ED42EF12E7608033E8600870138
:100DB000403FF700413FF800760A86008701403F38
:100DC000F900413FFA007A08803AFB007808803A3F
:100DD0007B02031DED2E770879020318F02EF12E09
:100DE000F92E760A86008701013081074131031808
:100DF000810A0800210091123830F1000730F2001A
:100E00008C3110248631210011123730F1000E3060
:100E1000F2008C3116248631083023009F00903078
:100E20009D0024309E0044309B009C019530F100D1
:100E30000B30F2008C3104248631B730F1000B30D6
:100E4000F2008C310A248631B330F1000B30F2000D
:100E50008B31FE2386312100D801DD01DC01083011
:100E6000F3007308DB00FC01DA01D90191160800D8
:100E70007C08203E860001308700810123001D1D73
:100E8000422F432F4F2F7C08203E860001308700E1
:100E90008114210050088A004F080A00873123007E
:100EA0009D1C532F542F602F7C08203E860001305C
:100EB0008700011521004E088A004D080A0087317D
:100EC0007C08203E86000130870001080319692F45
:100ED0006A2F712F21004C088A004B080A008731C5
:100EE000742F8E311C2687310800F200F301F30ABB
:100EF00021003C197C2F7D2FAD2F7208F100710865
:100F0000B600BC103C153C100E30F1007108BA0060
:100F1000F430B4000130B500BC159630A0000B30A1
:100F2000A100AC019630A2000B30A300AD019630B9
:100F3000A4000B30A500AE019630A6000B30A70030
:100F4000AF010230A8000030A900B0018B31982316
:100F500087318C3195248731F30173080800CC3434
:100F60000B345C340C344B340C34C83405346F34DB
:100F7000063434340C34CE340F34D1340B34D634FC
:100F80000B34DB340B34E0340B34E5340B34EA340B
:100F90000B34EF340B34F4340B346D340F345034E1
:100FA0006F3474342034763461346C347534653481
:100FB0003A342034253464344834253464344D3490
:100FC0000D340A340034F201F20A2100BC18E92F72
:100FD000EA2FFD2F3C11FF30F1007108B6008B3174
:100FE000982387318B319E2387318B319B23873127
:100FF00021003B08F1007108F20072080800483433
:1010000048343A344D344D343A34733473342034E4
:10101000253464343A34253464343A342534643421
:061020000D340A34003417
:10172A0008000130080020009111080024009512D9
:10173A000800210091110800240016140800240052
:10174A0096140800240016150800240096150800AF
:10175A002400110808002000911508008E311C266B
:10176A008B31080023001D121D16080016302100B7
:10177A0097000800240096161616080024009612F0
:10178A0016160800F10071082400910008002100D3
:10179A00BC10BB010E3008008B31A4238B31013001
:1017AA0008008B31A4238B31023008008B31A4232B
:1017BA008B31013008008B31A7238B3100300800B0
:1017CA008B31C3238B31053008008B31BF238B311A
:1017DA000A3008008B31BF238B3109300800210001
:1017EA00BC10BB010E30080000308E3159268B31F7
:1017FA00080072082100CC007108CB0008007208AA
:10180A002100D0007108CF00080072082100CE0024
:10181A007108CD00080072082100D2007108D100B9
:10182A00080072082100D4007108D30008002400BF
:10183A00160E890C890C013908002000911D262CEE
:10184A00272C222C0800F30073088E31ED268C31E8
:10185A000800640080010131890B2F2C003421001B
:10186A003C108B31AA238C3104300800E03021006F
:10187A009E009B019C0101309D0008007C302000E5
:10188A009B009A01911007309C00080021003C142B
:10189A0036358B31C7238C3103300800240094017C
:1018AA000830950096014F309200951208002100E9
:1018BA003C140314360D8B31C7238C3105300800D4
:1018CA001C30260093000C3091009201CF30250085
:1018DA009E050800703021009900980122009601A7
:1018EA0021001A1F792C7A2C752C08007708F2002F
:1018FA007608F1007808F9007908F30000308E3193
:10190A00C7268C3108008F2C8C3122248C318F31E0
:10191A003F278C312100BC18932C942C892C080069
:10192A002400951A992C9A2CA12C94010830950020
:10193A0096014F309200951608007708F200760853
:10194A00F1007808F9007908F30002308E31C726D1
:10195A008C310800F4002100BC1DB42CB52CBE2C1F
:10196A007408F3007308B7007208B9007108B80068
:10197A00BC1108000230F1000030F2007A088C3104
:10198A00AF248C310030F600F700F8018C317B244B
:10199A008C31043008000130F1000030F2007A087E
:1019AA008C31AF248C310030F600F700F8018C310D
:1019BA007B248C31043008000130F1000030F20041
:1019CA007A088C31AF248C310030F600F700F80128
:1019DA008C317B248C31023008000230F100003057
:1019EA00F2007A088C31AF248C310030F600F7000F
:1019FA00F8018C317B248C31023008000230F1006E
:101A0A000030F2007A088C31AF248D310030F600B4
:101A1A00F700F8018C317B248D3104300800013045
:101A2A00F1000030F2007A088C31AF248D31003099
:101A3A00F600F700F8018C317B248D310230080062
:101A4A000230F1000030F2007A088C31AF248D3177
:101A5A000030F600F700F8018C317B248D3102301A
:101A6A0008000130F1000030F2007A088C31AF240E
:101A7A008D310030F600F700F8018C317B248D316E
:101A8A000430080069302000EF006F082100DE00F2
:101A9A0020006808E0006708DF00DE30EF006F080A
:101AAA00E10000308F319D278D310800F400F301E9
:101ABA00741C602D612D652D7108F2007208F30700
:101ACA000310F10D0310F40C7408031D6D2D6E2D17
:101ADA005D2D730808007208F4007108F300F436EB
:101AEA00F30CF436F30C73082600910071080339DD
:101AFA00F3000430F335890B7F2D1308CF397304B3
:101B0A009300080022008C018D01F73021008C001F
:101B1A00FF308D00C83023008D001F308C00240058
:101B2A008D018C0121009517803022009D00013023
:101B3A009E0008007A0886008701403FF100413F75
:101B4A00F2007A08023E8600870101088C31AF2430
:101B5A008D310030F600F700F8018C317B248D318D
:101B6A00023008007A0886008701403FF100413FB1
:101B7A00F2007A08023E8600870101088C31AF2400
:101B8A008D310030F600F700F8018C317B248D315D
:101B9A00023008008C3153248D318D3187258D31E7
:101BAA008C316F248D318B31BB238D318C313B24A9
:101BBA008D318C3165248D318C3143248D318631C0
:101BCA00FA268D3108007508803AF60080307602D0
:101BDA00031DF12D013074020318F42DF52D012E89
:101BEA007409F6007509F700F60A0319F70A760868
:101BFA00F4007708F500012E0800F5007508F300D7
:101C0A007308F4000C2E0130F3007308F507750809
:101C1A008600013087000108031D142E152E082E98
:101C2A0074087502F100F201F11BF20308002300A7
:101C3A001908F0007C08283E8600013087007008E9
:101C4A0081000130F0007008FC0708307C02031C98
:101C5A002F2E302E312EFC010130F00070082100A9
:101C6A00D9070800083021005B0203183D2E3E2EDA
:101C7A00572E5C08303E8600013087000108230099
:101C8A009A000130F00070082100DC0708305C027D
:101C9A00031C502E512E522EDC010130F000700828
:101CAA00DB07582E111208002000A600A701A70A78
:101CBA002100BC18612E622E792EBC142000A701C7
:101CCA0026080319692E6A2E6E2E2100BA01BA0A55
:101CDA00732E0230FB007B082100BA008B31A1234E
:101CEA008E318C3188248E3120002708080020008C
:101CFA00A2002208F7007708A1003030F700770821
:101D0A00A1050A30F7007708F1002108F80004302D
:101D1A00F836890B8D2E78088D315B258E31F900C6
:101D2A0079082000A0000F302205F7002008770765
:101D3A00F500F601F60D08002000A200A001220815
:101D4A00F7007708A1007030F7007708A1050A307C
:101D5A00F7007708F1002108F8000430F836890BFB
:101D6A00B32E78088D315B258E31F9007908200071
:101D7A00A0070F302205F70020087707F500F601C3
:101D8A00F60D0800F500710872040319CD2ECE2E47
:101D9A00DF2E7535A03E860087017108C03F7208A4
:101DAA00C13F7308F4007508AC3E860087017408C9
:101DBA008100EC2E7535A03E860087019630C03F23
:101DCA000B30C13F7508AC3E8600870181010800CF
:101DDA00F20021005B080319F32EF42EEE2E111ADD
:101DEA00F72EF82EFC2E720823009A00132F1112D8
:101DFA007208F1005D08303E8600013087007108E4
:101E0A0081000130F1007108DD0708305D02031C12
:101E1A000F2F102F112FDD010130DB0221001116C7
:101E2A0008002000A700A501A6012E2F2408A10062
:101E3A00A2012108F4002208F5002008A3002308C3
:101E4A00F6008631BB268F3101302000A50700300D
:101E5A00A63D25082707A100210886000130870032
:101E6A000108A2002208A4002408031D3D2F3E2FCA
:101E7A001B2F08008B3198238F3121003C1C462FE1
:101E8A00472F552F8C311C248F31003A03194E2FBE
:101E9A004F2F552F0F302000A30023082100BA002E
:101EAA0021003A082000A300A401A335A40DAF30F5
:101EBA00230784008730243D8500013F8A00003FC4
:101ECA000A008F312000A50025082100BA00080069
:101EDA0021003C1002302000A00020082100BB0095
:101EEA007E2F8B31DB238F319C2F8B31E0238F3177
:101EFA009C2F2E082000A0002008FA000430A03EE3
:101F0A0086008701413F8A00403F0A008F31200046
:101F1A00A100A2012208003A0319942F7A2F21085E
:101F2A00023A0319762F013A0319762F7A2F0800FD
:101F3A002000E4006008E6005F08E5002100BD011A
:101F4A00BE01BB2F6530E2006208CF006108E300E2
:101F5A006308D0006408843194248F3120004F082C
:101F6A002100BD07200050082100BE3D2000650861
:101F7A008400660885001200031DC42FC52FA72FF1
:101F8A0021003E082000E00021003D082000DF007B
:101F9A0008002100BC15DE2F8B31DB238F31FF2F88
:101FAA008B31B0238F310330FF2F8B31E0238F31F8
:101FBA00FF2F2C082000A0002008FA002100210889
:101FCA008A0020080A008F312000A100A2012208FD
:101FDA00003A0319F12FDA2F2108013A0319DA2FEF
:101FEA00033A0319D12F013A0319D12F073A0319DA
:061FFA00D52FDA2F0800CC
:020000040001F9
:04000E00E43FFF1FAD
:00000001FF
