:0400000080312E28F5
:1000060008007E1480310B1F09280A282C2821009D
:10001600111E0E280F281B282000111E1328142835
:100026001B28210049088A0048080A0080312C282C
:100036002100911E1F2820282C282000911E2428EC
:1000460025282C28210047088A0046080A00803106
:100056002C287E10090080313028FC01A030840055
:100066000030850032308B3102238031203084000D
:100076000130850020308B31022380317E10200034
:100086008C313C2C200043088039C8004808CD003C
:100096004335C8004808D300C21F522853285428A5
:1000A600531453080319582859286828530A031D5E
:1000B6005D285E2866280030C3000030C20000308C
:1000C600C1000030C000C21770280030C3000030E5
:1000D600C2000030C1000030C00047088039C800A7
:1000E6004808CD064735C8004808D200C61F7C28F8
:1000F6007D287E28521452080319822883289228C4
:10010600520A031D8728882890280030C70000302F
:10011600C6000030C5000030C400C6179A2800305B
:10012600C7000030C6000030C5000030C4005208C9
:1001360003199E289F28A4285308031DA328A42832
:10014600AD280030C3000030C2000030C1000030CE
:10015600C0009B2A4008C8004808F10046088B31B9
:10016600C823803172082000D9007108D8005808C9
:10017600C800C901CA01CB014B08D1004A08D0000A
:100186004908CF004808CE005908C800C901CA016D
:10019600CB014B08D7004A08D6004908D5004808C5
:1001A600D4004108C8004808F10045088B31C8232F
:1001B600803172082000D9007108D8005808C8009C
:1001C600C901CA01CB014808CE074908CF3D4A08F4
:1001D600D03D4B08D13D5908C800C901CA01CB0121
:1001E6004808D4074908D53D4A08D63D4B08D73DAF
:1001F6004208C8004808F10044088B31C823803102
:1002060072082000D9007108D8005808C800C90132
:10021600CA01CB014808CE074908CF3D4A08D03D60
:100226004B08D13D5908C800C901CA01CB0148088D
:10023600D4074908D53D4A08D63D4B08D73D083076
:10024600CE35CF0DD00DD10D890B23294108C8001D
:100256004808F10044088B31C82380317208200019
:10026600D9007108D8005808CE075908CF3D00308C
:10027600D03DD13D4008C8004808F10045088B3103
:10028600C823803172082000D9007108D8005808A8
:10029600CE075908CF3D0030D03DD13D0830CE3590
:1002A600CF0DD00DD10D890B52294008C800480842
:1002B600F10044088B31C823803172082000D90030
:1002C6007108D8005808CE075908CF3D0030D03DF8
:1002D600D13D4108C8004808F10046088B31C823C3
:1002E600803172082000D9007108D8005808D40758
:1002F6005908D53D0030D63DD73D4208C8004808CC
:10030600F10045088B31C823803172082000D900DE
:100316007108D8005808D4075908D53D0030D63D95
:10032600D73D4208C8004808F10046088B31C8236B
:10033600803172082000D9007108D8005808C8001A
:100346005908C900CA01CB010830C835C90DCA0D04
:10035600CB0D890BA8294808D4074908D53D4A087A
:10036600D63D4B08D73D4E08C8004F08C900500877
:10037600CA005108CB001830CB36CA0CC90CC80CC1
:10038600890BBF294808D4074908D53D4A08D63DF8
:100396004B08D73D0830CE35CF0DD00DD10D890B8A
:1003A600CE2953085207C800C901C90D4808823E24
:1003B600D800FF30493DD900F7290130D435D50D95
:1003C600D60DD70D890BE129D11FEA29EB29EC2996
:1003D60054140130CE35CF0DD00DD10D890BED293A
:1003E600FF30D807FF30D93DD61FFA29FB29E0296F
:1003F600D201D11FFF29002A1C2AFF304E05C80052
:10040600FF304F05C900FF305005CA007F30510547
:10041600CB004B084A04490448040319132A142A3A
:10042600172AD201D20A1C2A541C1A2A1B2A1C2A51
:10043600142A52080319202A212A492A0130D407EE
:100446000030D53D0030D63D0030D73D571C2C2A14
:100456002D2A492A5408C8005508C9005608CA005A
:100466005708CB000130CC00CB37CA0CC90CC80CDE
:10047600CC0B372A4B08D7004A08D6004908D500C6
:100486004808D4000130D8070030D93D5908803AD1
:10049600C80080304802031D522AFF305802031C50
:1004A600552A562A602A7F302000D7008030D60091
:1004B6000030D5000030D4008F2A20005908803A39
:1004C600C80080304802031D6A2A0130580203180A
:1004D6006D2A6E2A792A00302000D7000030D60017
:1004E6000030D5000030D400CD018F2A20005808F6
:1004F600C8004808D300FF30D405FF30D5057F304B
:10050600D6050030D705531C892A8A2A8B2AD61786
:100516005336C8004808D7004D08C8004808D70415
:100526005708C3005608C2005508C1005408C00049
:10053600080020002D088039AE002E08B7002D35A2
:10054600AE002E08BE00AC1FA92AAA2AAB2A3E146A
:100556003E080319AF2AB02AC02A3E0A031DB42A50
:10056600B52ABD2A0030AD000030AC000030AB002B
:100576000030AA00AC17AD01C82A0030AD0000302B
:10058600AC000030AB000030AA0029088039AE006C
:100596002E08B7062935AE002E08BF00A81FD42A9C
:1005A600D52AD62A3F143F080319DA2ADB2AEB2A72
:1005B6003F0A031DDF2AE02AE82A0030A90000309E
:1005C600A8000030A7000030A600A817A901F32A4A
:1005D6000030A9000030A8000030A7000030A600B7
:1005E6002908280427042604031DFA2AFB2A142BAB
:1005F6000030AD000030AC000030AB000030AA0087
:100606008030AC047F30AD043708AE002E08AD0450
:100616002D08A9002C08A8002B08A7002A08A60068
:100626004F2C3E08031D182B192B222B0030A90036
:100636000030A8000030A7000030A6004F2C3E086E
:10064600AE00AF012F08B1003F082E02B000031C18
:10065600B10330087F3EB8000030313DB9002D08A7
:10066600B6002C08B5002B08B4002A08B3000030E9
:10067600AD000030AC000030AB000030AA00003006
:10068600BD000030BC000030BB000030BA00BF0126
:100696008A2B3F080319502B512B6B2B0130B33596
:1006A600B40DB50DB60D890B522B0130AA35AB0D25
:1006B600AC0DAD0D890B592BBD1F622B632B642B23
:1006C6002A140130BA35BB0DBC0DBD0D890B652B47
:1006D60029083602031D792B28083502031D792BBC
:1006E60027083402031D792B26083302031C7C2BB2
:1006F6007D2B862B3D172608B3022708B43B280816
:10070600B53B2908B63B0130AE002E08BF071A30AC
:100716003F02031C8F2B902B4C2B360835043404D8
:1007260033040319972B982BB12B3A14B12B0130B4
:10073600AA35AB0DAC0DAD0D890B9B2BBD1FA42BA4
:10074600A52BA62B2A140130BA35BB0DBC0DBD0D49
:10075600890BA72BFF30B807FF30B93DAC1FB42B70
:10076600B52B9A2BBF01BD1FB92BBA2BD62BFF3049
:100776003A05AE00FF303B05AF00FF303C05B00048
:100786007F303D05B100310830042F042E040319D3
:10079600CD2BCE2BD12BBF01BF0AD62B2A1CD42B97
:1007A600D52BD62BCE2B3F080319DA2BDB2B032CAC
:1007B6000130AA070030AB3D0030AC3D0030AD3D06
:1007C6002D1CE62BE72B032C2A08AE002B08AF00C6
:1007D6002C08B0002D08B1000130B200B137B00CC2
:1007E600AF0CAE0CB20BF12B3108AD003008AC00EB
:1007F6002F08AB002E08AA000130B8070030B93D1B
:100806003908803AAE0080302E02031D0C2CFF30D2
:100816003802031C0F2C102C1D2CFF302000B800B2
:100826000030B9000030AD000030AC000030AB0045
:100836000030AA0020003908803AAE0080302E022F
:10084600031D272C0130380203182A2C2B2C372C99
:100856002000B801B9010030AD000030AC00003016
:10086600AB000030AA00B70120003808AE002E0801
:10087600BE003E1C3F2C402C422CAC17462C7F3031
:10088600AE002E08AC053E36AE002E08AD00370889
:10089600AE002E08AD040B2B08002000BE00310868
:1008A600C5003208C6003308C7003408C80035083A
:1008B600C9003608CA003708CB003808CC004530D6
:1008C600860000308700473FB900B91B6B2C6D2CA2
:1008D60001306E2C00302000BA00BB013A08C3007C
:1008E6003B08C4004308440403197A2C7B2C992C3A
:1008F600C509C609C709C809C909CA09CB09CC0966
:10090600C50A031D992CC60A031D992CC70A031D87
:10091600992CC80A031D992CC90A031D992CCA0AC9
:10092600031D992CCB0A031D992CCC0A2100BD1B53
:100936009D2C9E2CA22CFD30BE05FF30BF053D0828
:10094600803A2000B90080303902031DAD2C0130F9
:1009560021003C020318B02CB12CB72C013020002A
:10096600BF000030C000BF2C21003D082000C000A1
:1009760021003C082000BF0021003B082000C200E7
:1009860021003A082000C10043084404031DCC2C72
:10099600CD2CD22C21003E1DD12CD22CD72CFF30B1
:1009A6002000C107FF30C23D1F302000CD000030BF
:1009B600CE002200BF01482DFF302000CD07FF30BA
:1009C600CE3D0A30A000A101A201A301A401A50108
:1009D600A601A7014508A8004608A9004708AA00DD
:1009E6004808AB004908AC004A08AD004B08AE0009
:1009F6004C08AF008631C126843120002108F5005D
:100A06002008F4008B31582384317408303E2000CE
:100A1600B9004D08203E8600013087003908810064
:100A2600FF30BF07FF30C03DFF30C107FF30C23D7A
:100A36000A30A000A101A201A301A401A501A601FB
:100A4600A7014508A8004608A9004708AA004808C3
:100A5600AB004908AC004A08AD004B08AE004C0894
:100A6600AF008531C025843120002008C50021084B
:100A7600C6002208C7002308C8002408C9002508A4
:100A8600CA002608CB002708CC0020004E08803A72
:100A9600B90080303902031D522D01304D02031C6E
:100AA600552D562D832D200045084604470448043D
:100AB60049044A044B044C04031D622D632DDF2CAC
:100AC6004008803AB90080303902031D6C2D013090
:100AD6003F0203186F2D702DDF2C20004208803A4C
:100AE600B90080303902031D7A2D01304102031C02
:100AF6007D2D7E2D832D2100BE18822D832DDF2C8A
:100B0600200043084404031D892D8A2D8F2D2100C2
:100B16003E1D8E2D8F2DAC2DFF302000CD07FF30D2
:100B2600CE3D43084404031D992D9A2D9F2D2B304D
:100B3600BC000030BD00A32D2D30BC000030BD0030
:100B46003C08B9004D08203E860001308700390870
:100B5600810020004D08203EB9003908A80042084F
:100B6600AA004108A9003E088D31102584312000D5
:100B76002908B2002808B1000800F30120308600D9
:100B860000308700473FF100F11FCA2DCB2DEC2D19
:100B96002000A009A109A209A309A409A509A6097B
:100BA600A709A00A031DEA2DA10A031DEA2DA20A20
:100BB600031DEA2DA30A031DEA2DA40A031DEA2D2F
:100BC600A50A031DEA2DA60A031DEA2DA70AF301AD
:100BD600F30A2830860000308700473FF100F11FF6
:100BE600F52DF62D192E2000A809A909AA09AB0989
:100BF600AC09AD09AE09AF09A80A031D152EA90A4D
:100C0600031D152EAA0A031D152EAB0A031D152E4C
:100C1600AC0A031D152EAD0A031D152EAE0A031DC3
:100C2600152EAF0A0130F1007108F3067430860004
:100C3600003087000830F10000301E00F10B202E36
:100C46002000200821042204230424042504260469
:100C5600270403192F2E302E8C2EF201F20A3F2E76
:100C6600A035A10DA20DA30DA40DA50DA60DA70DD2
:100C76000130F1007108F207A71F422E432E332ED2
:100C8600F435F50DF60DF70DF80DF90DFA0DFB0D12
:100C960027082F02031D692E26082E02031D692E22
:100CA60025082D02031D692E24082C02031D692E1A
:100CB60023082B02031D692E22082A02031D692E12
:100CC60021082902031D692E20082802031C6C2E08
:100CD6006D2E7E2E2008A8022108A93B2208AA3BD9
:100CE6002308AB3B2408AC3B2508AD3B2608AE3BAE
:100CF6002708AF3B7414A736A60CA50CA40CA30CAE
:100D0600A20CA10CA00C0130F202031D8B2E8C2E1E
:100D1600432E73080319902E912EAF2EF409F50970
:100D2600F609F709F809F909FA09FB09F40A031D96
:100D3600AF2EF50A031DAF2EF60A031DAF2EF70AD6
:100D4600031DAF2EF80A031DAF2EF90A031DAF2EA1
:100D5600FA0A031DAF2EFB0A74082000A0007508CE
:100D6600A1007608A2007708A3007808A4007908F5
:100D7600A5007A08A6007B08A7000800F301283022
:100D8600860000308700473FF100F11FCB2ECC2EA6
:100D9600ED2E2000A809A909AA09AB09AC09AD09DD
:100DA600AE09AF09A80A031DEB2EA90A031DEB2EF7
:100DB600AA0A031DEB2EAB0A031DEB2EAC0A031D7C
:100DC600EB2EAD0A031DEB2EAE0A031DEB2EAF0A6A
:100DD600F301F30A2030860000308700473FF10018
:100DE600F11FF62EF72E162F2000A009A109A20941
:100DF600A309A409A509A609A709A00A031D162F78
:100E0600A10A031D162FA20A031D162FA30A031DEE
:100E1600162FA40A031D162FA50A031D162FA60AB0
:100E2600031D162FA70A20002008210422042304EC
:100E360024042504260427040319222F232F762FA2
:100E4600F201F20A322FA035A10DA20DA30DA40DB9
:100E5600A50DA60DA70D0130F1007108F207A71F19
:100E6600352F362F262F27082F02031D542F26082D
:100E76002E02031D542F25082D02031D542F24086E
:100E86002C02031D542F23082B02031D542F220866
:100E96002A02031D542F21082902031D542F20085E
:100EA6002802031C572F582F682F2008A802210854
:100EB600A93B2208AA3B2308AB3B2408AC3B2508E8
:100EC600AD3B2608AE3B2708AF3BA736A60CA50CC4
:100ED600A40CA30CA20CA10CA00C0130F202031D61
:100EE600752F762F362F730803197A2F7B2F992F9C
:100EF600A809A909AA09AB09AC09AD09AE09AF0948
:100F0600A80A031D992FA90A031D992FAA0A031DD2
:100F1600992FAB0A031D992FAC0A031D992FAD0A11
:100F2600031D992FAE0A031D992FAF0A200028082A
:100F3600A0002908A1002A08A2002B08A3002C085B
:100F4600A4002D08A5002E08A6002F08A70008005B
:100F560076080319AF2FB02FB52F7608031DB42FCF
:100F6600B52FBA2F74088A31DE228731E92F760829
:100F7600033E86008701160001040319C32FC42F00
:100F8600E12F7608033E86008701403FF700413F88
:100F9600F800760A86008701403FF900413FFA00D3
:100FA6007A08803AFB007808803A7B02031DDD2F21
:100FB600770879020318E02FE12FE92F760A8600D9
:100FC60087010130810741310318810A0800220098
:100FD6008C018D01FF3021008C00FF308D00F83030
:100FE60023008D001F308C0024008D018C01210010
:100FF600951722009D019E01080050346F34743409
:101006002034763461346C34753465343A342034A3
:10101600253464344834253464344D340D340A346C
:02102600003494
:1015A4008B313E238A31080023001D121D160800CA
:1015B4001630210097000800F30073088B31EB23E9
:1015C4008A31080072082100C1007108C0000800B7
:1015D40072082100C5007108C400080072082100C7
:1015E400C3007108C200080072082100C700710816
:1015F400C600080072082100C9007108C80008006C
:10160400640080010131890B032B0034C0302100B8
:101614009E009B019C0101309D0008007030210058
:10162400990098012200960121001A1F1A2B1B2BE6
:10163400162B08008731EA278B318B3110238B312D
:101644008A31DA228B318B3108238B318C31D224CD
:101654008B31080069302000ED006D08EE00680849
:10166400E0006708DF006E30ED006D08E100003037
:101674008C3168248B31080023001908F0007C08A1
:10168400A83E86008701700881000130F0007008D0
:10169400FC0708307C02031C502B512B522BFC01FD
:1016A4000130F00070082100CD0708007508803A69
:1016B400F60080307602031D612B0130740203189A
:1016C400642B652B712B7409F6007509F700F60A73
:1016D4000319F70A7608F4007708F500712B08005F
:1016E400F5007508F3007308F4007C2B0130F30057
:1016F4007308F50775088600013087000108031D8B
:10170400842B852B782B74087502F100F201F11BF0
:10171400F2030800F4007408F300F30DF30D210044
:101724001D087306833973069D001D140D30890B43
:10173400992B000021009D149D18A12BA22B9E2BF8
:101744001C08F2001B08F1000800083021004F02B9
:101754000318AD2BAE2BC62B5008B03E8600870174
:10176400010823009A000130F00070082100D0071E
:1017740008305002031CBF2BC02BC12BD0010130F9
:10178400F0007008CF07C72B11120800F900F5010B
:10179400F6017108F300F4017308F7007408F80007
:1017A400791CD52BD62BDA2B7708F5077808F63D6C
:1017B4000130F735F80D890BDB2B0310F90C790890
:1017C400031DE52BE62BD22B7608F2007508F100F9
:1017D4000800F20021004F080319F12BF22BEC2B27
:1017E400111AF52BF62BFA2B720823009A00102CF1
:1017F40011127208F1005108B03E86008701710889
:1018040081000130F1007108D10708305102031C36
:101814000C2C0D2C0E2CD1010130CF0221001116FD
:1018240008002000A700A501A6012B2C2408A10074
:10183400A2012108F4002208F5002008A3002308CF
:10184400F6008731AB278C3101302000A50700302A
:10185400A63D25082707A10021088600013087003E
:101864000108A2002208A4002408031D3A2C3B2CE2
:10187400182C08008B311C238C3121000D108B1780
:101884000B178D31DE258C3120000D1429302100F9
:10189400D9009630D8007F30890B4E2CD80B4E2CB3
:1018A400D90B4E2C20000D108D31DE258C312930C2
:1018B4002100D9009630D8007F30890B5F2CD80BDB
:1018C4005F2CD90B5F2C432C80312E282000E400A0
:1018D4006008E6005F08E5002100B801B901862C24
:1018E4006530E2006208CF006108E3006308D000BD
:1018F40064088F3125278C3120004F082100B80758
:10190400200050082100B93D2000650884006608C5
:1019140085001200031D8F2C902C722C2100390895
:101924002000E000210038082000DF0008007C08C7
:10193400A03E86008701810123001D1DA22CA32C3B
:10194400AE2C7C08A03E8600870181142100450846
:101954008A0044080A008C3123009D1CB22CB32C4D
:10196400BE2C7C08A03E8600870101152100430897
:101974008A0042080A008C317C08A03E8600870158
:1019840001080319C62CC72CCE2C210041088A005B
:1019940040080A008C31D12C8B313E238C31080055
:1019A400210091129930F1000C30F2008A31F622B4
:1019B4008C3121001112A730F1000B30F2008A3172
:1019C400FC228C31083023009F0090309D0024308D
:1019D4009E0044309B009C010330F1000030F20073
:1019E4008A31EA228C31D630F1000A30F2008A3191
:1019F400F0228C31D230F1000A30F2008A31E42234
:101A04008C312100CC01D101D0010830F3007308DE
:101A1400CF00FC01CE01CD01911608002000B000DA
:101A240021003E1C162D172D202D20003008AB0060
:101A34002B08A00028088C3113248D312000AA1B08
:101A4400242D252D2A2D2A08AF002908AE002C2D7F
:101A5400AE01AF01AC01AD01402D2030F4000030E7
:101A6400F50020003008AB002B08F6008731AB27C7
:101A74008D3101302000AC070030AD3D2D08803A97
:101A8400AB002F08803A2B02031D4A2D2E082C028E
:101A9400031C4D2D4E2D2F2D21003E18522D532D5C
:101AA4005C2D20003008AB002B08A00028088C31E6
:101AB40013248D31200028088B3172238D312000AE
:101AC4002E087107A8002F08723DA9000800031012
:101AD40020005C0D5D0DDE005E08FB007B08031D2D
:101AE400742D752D7E2D0030DD000030DC000030BB
:101AF400DB000030DA00DD2D5A08DE005B08DF0071
:101B04005C08E0005D08E1001F30E136E00CDF0C0A
:101B1400DE0C890B872D5E08E2006208FA00DC17F0
:101B2400FF30DA05FF30DB05FF30DC050030DD0572
:101B34009630FB02FB1F9F2DA02DB82D7B08803A09
:101B4400973E0318A62DA72DA82D752D0130DD363F
:101B5400DC0CDB0CDA0C890BA92D0130DE005E08ED
:101B6400FB07031DB62DB72DA82DCD2D20307B02EC
:101B7400031CBD2DBE2DC82D752D0130DA35DB0DAE
:101B8400DC0DDD0D890BC02D0130FB027B08031D2C
:101B9400CC2DCD2DBF2D7A080319D12DD22DDD2DBD
:101BA400DA09DB09DC09DD09DA0A0319DB0A03199E
:101BB400DC0A0319DD0A080002308B318C238D31D5
:101BC40072082100D7007108D6005608F1005708A2
:101BD400F200F301F40100308E3178268D3174085F
:101BE4002000AD007308AC007208AB007108AA00B5
:101BF4004230A9001E30A8006630A7006630A60057
:101C040082319C228D3120002908DD002808DC0067
:101C14002708DB002608DA008D3169258D31200084
:101C24005B082100D30020005A082100D200560886
:101C3400F1005708F200F301F40100308E317826E8
:101C44008D3174082000AD007308AC007208AB003D
:101C54007108AA004330A9006D30A8009930A7008C
:101C64009A30A60082319C228D3120002908C700B9
:101C74002808C6002708C5002608C4004130C30050
:101C84007030C2000030C1000030C00080314520F7
:101C94008D3120004308DD004208DC004108DB00F0
:101CA4004008DA008D3169258D3120005B08210060
:101CB400D50020005A082100D40000302000E7009D
:101CC4008830E800210053082000EA00210052086F
:101CD4002000E900210055082000EC0021005408F0
:101CE4002000EB008B312C238D3108002000A00054
:101CF400200803197E2E7F2E932EF41F822E832E0E
:101D0400932E7109A2007209A3007309A400740937
:101D1400A500A20A0319A30A0319A40A0319A50A10
:101D24009B2E7408A5007308A4007208A300710810
:101D3400A2007408730472047104031DA22EA32E5E
:101D4400AC2E0030F4000030F3000030F20000301C
:101D5400F100242F9630F5007508A100BC2E013047
:101D6400F5007508A1070130A536A40CA30CA20C3C
:101D7400890BB62EFE302505031DC12EC22EB12EB1
:101D8400D62E0130F5007508A1070130A2070030F6
:101D9400A33D0030A43D0030A53D0130A536A40C80
:101DA400A30CA20C890BD02EFF302505031DDB2EBE
:101DB400DC2EC32EE62E0130A1020130A235A30D84
:101DC400A40DA50D890BE02EA41BE92EEA2EF02EFE
:101DD400023021020318EF2EF02EDD2E2118F32EEF
:101DE400F42EFC2EFF30A205FF30A3057F30A4059E
:101DF400FF30A5050310A10C2108F500F601F70139
:101E0400F8011830F535F60DF70DF80D890B042F90
:101E14007508A2047608A3047708A4047808A50426
:101E240020080319162F172F1C2FF41F1A2F1B2FEE
:101E34001C2FA5172508F4002408F3002308F2003A
:101E44002208F10008002000DE004F088600870108
:101E5400403FD100413FD200510884005208850020
:101E64001200253A031D372F382FDC2F4F08860028
:101E740087010130810741310318810A2100BA0129
:101E8400BB01BE01BF01FF30BC00FF30BD0020001C
:101E94004F0886008701403FD100413FD2005108DE
:101EA4008400520885001200643A03195A2F5B2FEC
:101EB4006C2F4F0886008701403FD100413FD2007C
:101EC40051088400520885001200693A031D6B2FE3
:101ED4006C2FA72F4F0886008701013081074131FD
:101EE4000318810A500886008701010884008501CF
:101EF40002308107003FD100013FD2005108D600D3
:101F04005208D700890D893B8909D800D900DA0025
:101F1400DB00DC00DD005608B1005708B2005808A9
:101F2400B3005908B4005A08B5005B08B6005C0851
:101F3400B7005D08B8005E08843150248F3120005A
:101F44003208D0003108CF00FF2F4F0886008701E8
:101F5400403FD100413FD20051088400520885001F
:101F64001200253A031DB72FB82FD12F4F08860032
:101F740087010130810741310318810A2530F400BB
:101F84000030F5005E08D1005108F6008731AB2718
:101F94008F3101302000CF000030D000FF2F4F08D8
:101FA400860087010130810741310318810ACF017E
:101FB400D001FF2F4F0886008701403FD100413FE9
:101FC400D20051088400520885000008D300D401CF
:101FD4005308F4005408F5005E08D5005508F600CF
:101FE4008731AB278F3120004F08860087010130ED
:0C1FF400810741310318810ACB2F08003F
:020000040001F9
:04000E00E43FFF1FAD
:00000001FF
