:1000000080312E28053008007E1480310B1F09280E
:100010000A282C282100111E0E280F281B2820003A
:10002000111E132814281B2821005E088A005D0871
:100030000A0080312C282100911E1F2820282C28FE
:100040002000911E242825282C2821005C088A00E5
:100050005B080A0080312C287E100900803130288E
:10006000FC01A03084000030850047308C31E3244F
:100070008031203084000130850028308C31E32429
:1000800080317E10200084317B2C2000BE0031089E
:10009000C5003208C6003308C7003408C800350858
:1000A000C9003608CA003708CB003808CC004530F4
:1000B000860000308700473FB900B91B60286228DE
:1000C0000130632800302000BA00BB013A08C300A9
:1000D0003B08C4004308440403196F2870288E2885
:1000E000C509C609C709C809C909CA09CB09CC0984
:1000F000C50A031D8E28C60A031D8E28C70A031DC4
:100100008E28C80A031D8E28C90A031D8E28CA0A14
:10011000031D8E28CB0A031D8E28CC0A2100D21B7A
:10012000922893289728FD30D305FF30D405520834
:10013000803A2000B90080303902031DA228013026
:10014000210051020318A528A628AC280130200060
:10015000BF000030C000B428210052082000C000B9
:10016000210051082000BF00210050082000C200DB
:1001700021004F082000C10043084404031DC1288A
:10018000C228C7282100531DC628C728CC28FF3005
:100190002000C107FF30C23D1F302000CD000030DD
:1001A000CE002200C7013D29FF302000CD07FF30DF
:1001B000CE3D0A30A000A101A201A301A401A50126
:1001C000A601A7014508A8004608A9004708AA00FB
:1001D0004808AB004908AC004A08AD004B08AE0027
:1001E0004C08AF008231B622803120002108F50092
:1001F0002008F4008E317F2680317408303E2000C4
:10020000B9004D08283E860001308700390881007A
:10021000FF30BF07FF30C03DFF30C107FF30C23D98
:100220000A30A000A101A201A301A401A501A60119
:10023000A7014508A8004608A9004708AA004808E1
:10024000AB004908AC004A08AD004B08AE004C08B2
:10025000AF008131B521803120002008C500210880
:10026000C6002208C7002308C8002408C9002508C2
:10027000CA002608CB002708CC0020004E08803A90
:10028000B90080303902031D472901304D02031C9B
:100290004A294B2978292000450846044704480488
:1002A00049044A044B044C04031D57295829D428F7
:1002B0004008803AB90080303902031D61290130BD
:1002C0003F02031864296529D42820004208803A97
:1002D000B90080303902031D6F2901304102031C2F
:1002E0007229732978292100D31877297829D428ED
:1002F000200043084404031D7E297F29842921000E
:10030000531D83298429A129FF302000CD07FF3008
:10031000CE3D43084404031D8E298F2994292B3098
:10032000BC000030BD0098292D30BC000030BD005D
:100330003C08B9004D08283E860001308700390886
:10034000810020004D08283EB9003908A800420865
:10035000AA004108A9003E0885310125803120000E
:100360002908B2002808B1000800F30120308600F7
:1003700000308700473FF100F11FBF29C029E12964
:100380002000A009A109A209A309A409A509A60999
:10039000A709A00A031DDF29A10A031DDF29A20A5C
:1003A000031DDF29A30A031DDF29A40A031DDF297A
:1003B000A50A031DDF29A60A031DDF29A70AF301E9
:1003C000F30A2830860000308700473FF100F11F14
:1003D000EA29EB290E2A2000A809A909AA09AB09D4
:1003E000AC09AD09AE09AF09A80A031D0A2AA90A7A
:1003F000031D0A2AAA0A031D0A2AAB0A031D0A2A98
:10040000AC0A031D0A2AAD0A031D0A2AAE0A031DFF
:100410000A2AAF0A0130F1007108F3067430860031
:10042000003087000830F10000301E00F10B152A63
:100430002000200821042204230424042504260487
:1004400027040319242A252A812AF201F20A342AD0
:10045000A035A10DA20DA30DA40DA50DA60DA70DF0
:100460000130F1007108F207A71F372A382A282A1D
:10047000F435F50DF60DF70DF80DF90DFA0DFB0D30
:1004800027082F02031D5E2A26082E02031D5E2A5E
:1004900025082D02031D5E2A24082C02031D5E2A56
:1004A00023082B02031D5E2A22082A02031D5E2A4E
:1004B00021082902031D5E2A20082802031C612A44
:1004C000622A732A2008A8022108A93B2208AA3B15
:1004D0002308AB3B2408AC3B2508AD3B2608AE3BCC
:1004E0002708AF3B7414A736A60CA50CA40CA30CCC
:1004F000A20CA10CA00C0130F202031D802A812A5B
:10050000382A73080319852A862AA42AF409F509CA
:10051000F609F709F809F909FA09FB09F40A031DB4
:10052000A42AF50A031DA42AF60A031DA42AF70A21
:10053000031DA42AF80A031DA42AF90A031DA42AEC
:10054000FA0A031DA42AFB0A74082000A0007508FB
:10055000A1007608A2007708A3007808A400790813
:10056000A5007A08A6007B08A7000800F301283040
:10057000860000308700473FF100F11FC02AC12AE2
:10058000E22A2000A809A909AA09AB09AC09AD090A
:10059000AE09AF09A80A031DE02AA90A031DE02A33
:1005A000AA0A031DE02AAB0A031DE02AAC0A031DB8
:1005B000E02AAD0A031DE02AAE0A031DE02AAF0AB5
:1005C000F301F30A2030860000308700473FF10036
:1005D000F11FEB2AEC2A0B2B2000A009A109A2098C
:1005E000A309A409A509A609A709A00A031D0B2BA5
:1005F000A10A031D0B2BA20A031D0B2BA30A031D2B
:100600000B2BA40A031D0B2BA50A031D0B2BA60AFB
:10061000031D0B2BA70A2000200821042204230419
:1006200024042504260427040319172B182B6B2BED
:10063000F201F20A272BA035A10DA20DA30DA40DE6
:10064000A50DA60DA70D0130F1007108F207A71F37
:100650002A2B2B2B1B2B27082F02031D492B260887
:100660002E02031D492B25082D02031D492B2408AA
:100670002C02031D492B23082B02031D492B2208A2
:100680002A02031D492B21082902031D492B20089A
:100690002802031C4C2B4D2B5D2B2008A80221089F
:1006A000A93B2208AA3B2308AB3B2408AC3B250806
:1006B000AD3B2608AE3B2708AF3BA736A60CA50CE2
:1006C000A40CA30CA20CA10CA00C0130F202031D7F
:1006D0006A2B6B2B2B2B730803196F2B702B8E2B14
:1006E000A809A909AA09AB09AC09AD09AE09AF0966
:1006F000A80A031D8E2BA90A031D8E2BAA0A031D0F
:100700008E2BAB0A031D8E2BAC0A031D8E2BAD0A5C
:10071000031D8E2BAE0A031D8E2BAF0A2000280866
:10072000A0002908A1002A08A2002B08A3002C0879
:10073000A4002D08A5002E08A6002F08A700080079
:100740002000DE004F0886008701403FD100413F76
:10075000D20051088400520885001200253A031D7A
:10076000B22BB32B572C4F0886008701013081072D
:1007700041310318810A2100CF01D001D301D401F6
:10078000FF30D100FF30D20020004F0886008701E3
:10079000403FD100413FD2005108840052088500FB
:1007A0001200643A0319D52BD62BE72B4F0886008D
:1007B0008701403FD100413FD200510884005208D8
:1007C00085001200693A031DE62BE72B222C4F0807
:1007D000860087010130810741310318810A5008E2
:1007E0008600870101088400850102308107003FEF
:1007F000D100013FD2005108D6005208D700890D20
:10080000893B8909D800D900DA00DB00DC00DD0073
:100810005608B1005708B2005808B3005908B40090
:100820005A08B5005B08B6005C08B7005D08B80060
:100830005E0880314520833120003208D000310825
:10084000CF007A2C4F0886008701403FD100413FFE
:10085000D20051088400520885001200253A031D79
:10086000322C332C4C2C4F08860087010130810735
:1008700041310318810A2530F4000030F5005E088C
:10088000D1005108F60086314D2683310130200019
:10089000CF000030D0007A2C4F088600870101304D
:1008A000810741310318810ACF01D0017A2C4F080A
:1008B00086008701403FD100413FD20051088400AB
:1008C000520885000008D300D4015308F4005408EE
:1008D000F5005E08D5005508F60086314D268331B7
:1008E00020004F088600870101308107413103183D
:1008F000810A462C08008E310F26843121000D100C
:100900008B170B1720000D1415302100E8004B3019
:10091000E700BE30890B8A2CE70B8A2CE80B8A2C67
:10092000000020000D1015302100E8004B30E700DA
:10093000BE30890B992CE70B992CE80B992C000001
:100940002000A80168308531B12584318F312E27F0
:10095000843176082100EA007508E9002000A8012A
:10096000A80A68308531B12584318F312E27843132
:1009700076082100EC007508EB000230E7006708FC
:100980002000A80068308531B12584318D31FC25E7
:10099000843172082100EE007108ED00FD30200066
:1009A000E7008730E80021006A082000EA00210003
:1009B00069082000E9008D31EA2584310B302000E0
:1009C000E7008830E80021006C082000EA002100E0
:1009D0006B082000E9008D31EA25843119302000B0
:1009E000E7008830E80021006E082000EA002100BE
:1009F0006D082000E9008D31EA258431822C803198
:100A00002E282000B0002100531C072D082D112D89
:100A100020003008AB002B08A00028088731D4271D
:100A200085312000AA1B152D162D1B2D2A08AF007D
:100A30002908AE001D2DAE01AF01AC01AD01312D75
:100A40002030F4000030F50020003008AB002B0807
:100A5000F60086314D26853101302000AC0700308C
:100A6000AD3D2D08803AAB002F08803A2B02031DC4
:100A70003B2D2E082C02031C3E2D3F2D202D210046
:100A80005318432D442D4D2D20003008AB002B086A
:100A9000A00028088731D4278531200028088E310E
:100AA0009926853120002E087107A8002F08723D75
:100AB000A90008008C31D1248531003A0319612D39
:100AC000622D942D6F2D8C3186248531B02D8C3183
:100AD0008B248531B02D8C3195248531B02D2100AA
:100AE0002F082000A0002008FA000630A03E860053
:100AF0008701413F8A00403F0A0085312000A10064
:100B0000A2012208003A0319862D6B2D2108013A13
:100B100003196B2D033A0319632D013A0319672D4D
:100B2000073A03196B2D6B2D21003C101730A03EA6
:100B300086008701403F84008501810A00088C31CE
:100B40007C24853101302100B8020030B93B3808DF
:100B50003904031DAC2DAD2DAF2D0630B02D033063
:100B600008002000AA002A30A9002908AE0002309F
:100B7000AC000030AD0020002A088631CA2685313D
:100B8000003A0319C42DC52DBB2D8430F6000D305D
:100B9000F7002E302000A9002908F8008D311E250D
:100BA00085310130F1000030F20028308D315225BE
:100BB00085310030F600F700F8018D31452585318B
:100BC0008C31AE2485318E31CE2685312000A900AE
:100BD0002908AB002B030319EE2DEF2DE32D2B0875
:100BE000031DF32DF42DF52DFF2DFF30AC07FF3045
:100BF000AD3D2C082D04031DFE2DFF2DBB2D2E0811
:100C000008008C31622486312000A00021003708C2
:100C1000860087012000200881000130A000200804
:100C20002100B7070130B8020030B93B3808390459
:100C300003191B2E1C2E212E8C3178248631053071
:100C40004C2EBC152B2E8C31A42486314C2E8C318D
:100C50009F2486314C2E2C082000A0002008FA008A
:100C6000210021088A0020080A0086312000A10006
:100C7000A2012208003A03193E2E272E2108013A2C
:100C80000319272E033A0319232E013A0319232EA1
:100C9000073A0319272E272E080076080319512E2C
:100CA000522E572E7608031D562E572E5C2E740892
:100CB0008C31DD2486318B2E7608033E8600870139
:100CC000160001040319652E662E832E7608033E56
:100CD00086008701403FF700413FF800760A860012
:100CE0008701403FF900413FFA007A08803AFB0053
:100CF0007808803A7B02031D7F2E7708790203185B
:100D0000822E832E8B2E760A860087010130810782
:100D100041310318810A0800210091120430F100CA
:100D20000730F2008C31C524863121001112EA30DF
:100D3000F1000E30F2008C31CB24863108302300D4
:100D40009F0090309D0024309E0044309B009C0109
:100D50004A30F1000C30F2008C31B92486316C300D
:100D6000F1000C30F2008C31BF2486316830F10084
:100D70000C30F2008C31B32486312100E101E60110
:100D8000E5010830F3007308E400FC01E301E2012F
:100D900091160800F200F301F30A21003C19D12E4C
:100DA000D22E022F7208F1007108B600BC103C155B
:100DB0003C100E30F1007108BA00F430B40001307C
:100DC000B500BC154B30A0000C30A100AC014B307D
:100DD000A2000C30A300AD014B30A4000C30A500E4
:100DE000AE014B30A6000C30A700AF010230A800C6
:100DF0000030A900B0018C314D2486318D31382569
:100E00008631F301730808007C08BD3E8600870127
:100E1000810123001D1D0D2F0E2F192F7C08BD3EB3
:100E200086008701811421005A088A0059080A00A7
:100E3000873123009D1C1D2F1E2F292F7C08BD3EAE
:100E4000860087010115210058088A0057080A000A
:100E500087317C08BD3E8600870101080319312FC8
:100E6000322F392F210056088A0055080A00873191
:100E70003C2F8E31B3268731080081340C3409347D
:100E80000D34F8340C345A34053401340634E93462
:100E90000C347134073486340C348B340C34903475
:100EA0000C3495340C349A340C349F340C34A43400
:100EB0000C34A9340C34D0340F3450346F347434BF
:100EC0002034763461346C34753465343A342034EB
:100ED000253464344834253464344D340D340A34B4
:100EE00000342100BC15812F8C3190248731A22F32
:100EF0008C31652487310330A22F8C3195248731C2
:100F0000A22F2C082000A0002008FA0021002108B0
:100F10008A0020080A0087312000A100A2012208CF
:100F2000003A0319942F7D2F2108013A03197D2FD0
:100F3000033A0319742F013A0319742F073A03195E
:100F4000782F7D2F08002000E4006008E6005F088D
:100F5000E5002100CD01CE01C12F6530E20062081D
:100F6000CF006108E3006308D00064088331A02348
:100F7000873120004F082100CD07200050082100B4
:100F8000CE3D200065088400660885001200031D20
:100F9000CA2FCB2FAD2F21004E082000E0002100EA
:100FA0004D082000DF0008002000A700A501A601D1
:100FB000EC2F2408A100A2012108F4002208F5006A
:100FC0002008A3002308F60086314D268731013022
:100FD0002000A5070030A63D25082707A10021080D
:100FE0008600013087000108A2002208A40024081E
:100FF000031DFB2FFC2FD92F0800533465346334B5
:101000006F346E34643473343A34203425346434A9
:101010000D340A3400344D3469346E34753474340C
:10102000653473343A342034253464340D340A344E
:10103000003448346F347534723473343A342034A5
:0A104000253464340D340A34003402
:10189400080001300800200091110800240095126E
:1018A40008002100911108002400161408002400E7
:1018B4009614080024001615080024009615080044
:1018C4002400110808002000911508008E31B32669
:1018D4008C31080023001D121D160800163021004B
:1018E4009700080024009616161608002400961285
:1018F40016160800F1007108240091000800210068
:10190400BC10BB010E3008008C3159248C310130DD
:1019140008008C3159248C31023008008C31592450
:101924008C31013008008C315C248C31003008008B
:101934008C3178248C31053008008C3174248C313E
:101944000A3008008C3174248C31093008002100DD
:10195400BC10BB010E30080000308F310B278C31D6
:10196400080072082100D6007108D500080072082A
:101974002100DA007108D900080072082100D8009B
:101984007108D700080072082100DC007108DB0030
:10199400080072082100DE007108DD000800240040
:1019A400160E890C890C013908002000911DDB2CCE
:1019B400DC2CD72C0800F30073088F317A278C3184
:1019C4000800640080010131890BE42C00342100FB
:1019D4003C108C315F248C3104300800E03021004D
:1019E4009E009B019C0101309D00080021003C14D5
:1019F40036358C317C248C3103300800240094016A
:101A04000830950096014F3092009512080021008D
:101A14003C140314360D8C317C248D3105300800C0
:101A240070302100990098012200960121001A1FAC
:101A34001C2D1D2D182D08007708F2007608F100E2
:101A44007808F9007908F30000308F3154278D317C
:101A54000800322D8C31D7248D318F31A2278D315E
:101A64002100BC18362D372D2C2D08002400951A82
:101A74003C2D3D2D442D94010830950096014F30A6
:101A84009200951608007708F2007608F1007808AD
:101A9400F9007908F30002308F3154278D310800A2
:101AA400F4002100BC1D572D582D612D7408F3003E
:101AB4007308B7007208B9007108B800BC110800B7
:101AC4000230F1000030F2007A088D3152258D3158
:101AD4000030F600F700F8018D311E258D310430F9
:101AE40008000130F1000030F2007A088D315225EF
:101AF4008D310030F600F700F8018D311E258D314F
:101B0400043008000130F1000030F2007A088D3111
:101B140052258D310030F600F700F8018D311E2575
:101B24008D31023008000230F1000030F2007A08F2
:101B34008D3152258D310030F600F700F8018D31DA
:101B44001E258D31023008000230F1000030F20011
:101B54007A088D3152258D310030F600F700F801F6
:101B64008D311E258D31043008000130F100003024
:101B7400F2007A088D3152258D310030F600F700DD
:101B8400F8018D311E258D31023008000230F1003C
:101B94000030F2007A088D3152258D310030F60084
:101BA400F700F8018D311E258D3102300800013017
:101BB400F1000030F2007A088D3152258D31003069
:101BC400F600F700F8018D311E258D310430080030
:101BD40069302000ED006D08EE006808E000670839
:101BE400DF006E30ED006D08E10000308731A3277F
:101BF4008D310800F6007608F3007308F4007408C9
:101C0400A039F3007308F50007307605F300750872
:101C14007307F100F201F20D08008D3100258E31B9
:101C24008E3137268E318D3112258E318C317024D0
:101C34008E318C31F0248E3186318C268E31080021
:101C4400F400F301741C272E282E2C2E7108F200A8
:101C54007208F3070310F10D0310F40C7408031D4C
:101C6400342E352E242E7308080022008C018D0199
:101C7400FF3021008C00FF308D00C83023008D0020
:101C84001F308C0024008D018C01210095178030B9
:101C940022009D0001309E0008007A08860087011A
:101CA400403FF100413FF2007A08023E860087017E
:101CB40001088D3152258E310030F600F700F8010D
:101CC4008D311E258E31023008007A088600870186
:101CD400403FF100413FF2007A08023E860087014E
:101CE40001088D3152258E310030F600F700F801DD
:101CF4008D311E258E31023008007508803AF600B9
:101D040080307602031D882E0130740203188B2E56
:101D14008C2E982E7409F6007509F700F60A03193B
:101D2400F70A7608F4007708F500982E0800F50005
:101D34007508F3007308F400A32E0130F300730850
:101D4400F50775088600013087000108031DAB2ED6
:101D5400AC2E9F2E74087502F100F201F11BF20300
:101D6400080023001908F0007C08203E860001309A
:101D74008700700881000130F0007008FC0708300B
:101D84007C02031CC62EC72EC82EFC010130F000B5
:101D940070082100E2070800F201F20A2100BC18D1
:101DA400D42ED52EE82E3C11FF30F1007108B60078
:101DB4008C314D248E318C3153248E318C3150240E
:101DC4008E3121003B08F1007108F200720808000E
:101DD4000830210064020318F02EF12E092F650843
:101DE400C53E86008701010823009A000130F000F7
:101DF40070082100E50708306502031C022F032F39
:101E0400042FE5010130F0007008E4070A2F1112D5
:101E140008002000A600A701A70A2100BC18132F60
:101E2400142F2B2FBC142000A701260803191B2FE5
:101E34001C2F202F2100BA01BA0A252F0230FB00E3
:101E44007B082100BA008C3156248F318D312B252B
:101E54008F312000270808002000A200A0012208DA
:101E6400F7007708A1007030F7007708A1050A3061
:101E7400F7007708F1002108F8000430F836890BE0
:101E8400402F78088E3122268F31F90079082000FE
:101E9400A0070F302205F70020087707F500F601A8
:101EA400F60D0800F5007108720403195A2F5B2F10
:101EB4006C2F7535A03E860087017108C03F7208FB
:101EC400C13F7308F4007508AC3E860087017408AE
:101ED4008100792F7535A03E860087014B30C03FC5
:101EE4000C30C13F7508AC3E8600870181010800B3
:101EF400F200210064080319802F812F7B2F111A0F
:101F0400842F852F892F720823009A009F2F111286
:101F14007208F1006608C53E8600870171088100D9
:101F24000130F1007108E60708306602031C9B2F9C
:101F34009C2F9D2FE6010130E402210011160800B8
:101F44008C314D248F3121003C1CA92FAA2FB82F8E
:101F54008C31D1248F31003A0319B12FB22FB82F0D
:101F64000F302000A30023082100BA0021003A0802
:101F74002000A300A401A335A40D3D302307840051
:101F84008730243D8500013F8A00003F0A008F31DD
:101F94002000A50025082100BA00080021003C10FB
:101FA40002302000A00020082100BB00E12F8C316A
:101FB40090248F31FF2F8C3195248F31FF2F2E08E1
:101FC4002000A0002008FA000430A03E860087010B
:101FD400413F8A00403F0A008F312000A100A20146
:101FE4002208003A0319F72FDD2F2108023A0319BA
:0C1FF400D92F013A0319D92FDD2F080066
:020000040001F9
:04000E00E43FFF1FAD
:00000001FF
